:020000040000FA
:100000000C945C000C946E000C946E000C946E00CA
:100010000C946E000C946E000C946E000C946E00A8
:100020000C946E000C946E000C946E000C946E0098
:100030000C946E000C946E000C946E000C946E0088
:100040000C9413010C946E000C946E000C946E00D2
:100050000C946E000C946E000C946E000C946E0068
:100060000C946E000C946E00000000080002010069
:100070000003040700000000000000000000000072
:10008000250028002B0000000000240027002A0083
:10009000040404040404040402020202020203032E
:1000A0000303030301020408102040800102040836
:1000B000102001020408102011241FBECFEFD8E049
:1000C000DEBFCDBF21E0A0E0B1E001C01D92A934A8
:1000D000B207E1F70E945D010C9412040C94000039
:1000E00090E0FC01E859FF4F2491FC01EC55FF4FD3
:1000F0003491FC01E057FF4FE491EE23C9F0222335
:1001000039F0233001F1A8F4213019F1223029F11E
:10011000F0E0EE0FFF1FE458FF4FA591B4918FB7A9
:10012000F894EC91611126C030953E233C938FBF2B
:1001300008952730A9F02830C9F0243049F780917C
:1001400080008F7D03C0809180008F778093800036
:10015000DFCF84B58F7784BDDBCF84B58F7DFBCFB8
:100160008091B0008F778093B000D2CF8091B000A3
:100170008F7DF9CF3E2BDACF3FB7F8948091050100
:1001800090910601A0910701B091080126B5A89BA6
:1001900005C02F3F19F00196A11DB11D3FBFBA2F19
:1001A000A92F982F8827BC01CD01620F711D811DD9
:1001B000911D42E0660F771F881F991F4A95D1F75E
:1001C00008958F929F92AF92BF92CF92DF92EF925B
:1001D000FF924B015C010E94BC006B017C010E94FC
:1001E000BC006C197D098E099F09683E734081052A
:1001F0009105A8F321E0821A9108A108B10888EEC0
:10020000C80E83E0D81EE11CF11C81149104A104E6
:10021000B10429F7FF90EF90DF90CF90BF90AF909F
:100220009F908F9008951F920F920FB60F921124F6
:100230002F933F938F939F93AF93BF93809101012F
:1002400090910201A0910301B0910401309100014D
:1002500023E0230F2D3758F50196A11DB11D2093E2
:1002600000018093010190930201A0930301B093D8
:1002700004018091050190910601A0910701B091C0
:1002800008010196A11DB11D8093050190930601FF
:10029000A0930701B0930801BF91AF919F918F91F7
:1002A0003F912F910F900FBE0F901F90189526E849
:1002B000230F0296A11DB11DD2CF789484B5826020
:1002C00084BD84B5816084BD85B5826085BD85B5FA
:1002D000816085BD80916E00816080936E00109278
:1002E00081008091810082608093810080918100F3
:1002F0008160809381008091800081608093800084
:100300008091B10084608093B1008091B0008160E1
:100310008093B00080917A00846080937A0080910D
:100320007A00826080937A0080917A008160809365
:100330007A0080917A00806880937A001092C100E0
:1003400022E030E0F901EC55FF4F4491F901E0570C
:10035000FF4F8491882399F090E0880F991FFC014A
:10036000EA57FF4FA591B491FC01E458FF4F8591E6
:1003700094918FB7F894EC91E42BEC938FBF2F5F9F
:100380003F4F2E303105F1F683E090E090931E014F
:1003900080931D0181E090E09093320180933101C0
:1003A00090933401809333011092360110923501FD
:1003B000909338018093370110923A0110923901DD
:1003C00010923C0110923B0110923E0110923D01AF
:1003D0001092400110923F0110924201109241018F
:1003E0001092200110921F011092220110922101FF
:1003F00010922401109223011092260110922501DF
:10040000909328018093270110922A0110922901CC
:1004100010922C0110922B0110922E0110922D019E
:100420009093300180932F0110920A0110920901DC
:1004300010920C0110920B0110920E0110920D01FE
:100440001092100110920F011092120110921101DE
:1004500010921401109213011092160110921501BE
:10046000109218011092170110921A01109219019E
:1004700010921C0110921B01C2E0D0E060E0C62E79
:1004800060E0D62E61E08BE00E947000109248017F
:10049000109247011092460110924501D0934401F9
:1004A000C093430100914301109144010B301105A9
:1004B0000CF03FC0E0904701F0904801A09045014A
:1004C000B0904601F701EE0FFF1FEE0DFF1DEA0D84
:1004D000FB1DEE0FFF1FEF5CFE4F6081802F0E941F
:1004E00070008FEFA81AB80A83E0A816B104A9F02B
:1004F000B0924601A0924501809147019091480138
:10050000039721F410924801109247010F5F1F4F8B
:100510001093440100934301C5CF109246011092FD
:1005200045018FEFE81AF80AF0924801E09247017E
:10053000E3CF60ED77E080E090E00E94E100D093AF
:100540004401C0934301009143011091440160E0D4
:100550000B30110554F4802F0E9470000F5F1F4F65
:100560001093440100934301EECF8BE00E94700092
:1005700061E08CE00E9470001092480110924701E7
:100580001092460110924501D0934401C09343015B
:1005900000914301109144010B3011050CF03FC054
:1005A000E0904701F0904801A0904501B0904601CD
:1005B000F701EE0FFF1FEE0DFF1DEA0DFB1DEE0F05
:1005C000FF1FE15EFE4F6081802F0E9470008FEF61
:1005D000A81AB80A83E0A816B104A9F0B09246019F
:1005E000A09245018091470190914801039721F421
:1005F00010924801109247010F5F1F4F1093440162
:1006000000934301C5CF10924601109245018FEF30
:10061000E81AF80AF0924801E0924701E3CF60ED52
:1006200077E080E090E00E94E100D0934401C09325
:100630004301009143011091440160E00B3011052A
:1006400054F4802F0E9470000F5F1F4F10934401DD
:1006500000934301EECF8CE00E94700080911D0159
:1006600090911E0161E0039709F069C080911B0120
:1006700090911C01892B09F062C08DE00E947000EE
:1006800061E082E00E94700068EC70E080E090E041
:100690000E94E10060E082E00E94700061E086E07C
:1006A0000E94700068EC70E080E090E00E94E10041
:1006B00060E086E00E94700061E08AE00E947000C5
:1006C00068EC70E080E090E00E94E10060E08AE089
:1006D0000E94700061E084E00E94700068EC70E0AD
:1006E00080E090E00E94E10060E084E00E94700001
:1006F00061E086E00E94700068EC70E080E090E0CD
:100700000E94E10060E086E00E94700061E088E005
:100710000E94700068EC70E080E090E00E94E100D0
:1007200060E088E00E94700060E08DE00E94700050
:10073000C114D10409F4A6CE0E940000A3CE8DE01E
:100740000E947000109248011092470110924601D9
:1007500010924501D0934401C0934301009143019D
:10076000109144010B3011050CF03FC0E09047019F
:10077000F0904801A0904501B0904601F701EE0FBE
:10078000FF1FEE0DFF1DEA0DFB1DEE0FFF1FE75FC4
:10079000FE4F6081802F0E9470008FEFA81AB80A68
:1007A00083E0A816B104A9F0B0924601A0924501D9
:1007B0008091470190914801039721F410924801DC
:1007C000109247010F5F1F4F1093440100934301A4
:1007D000C5CF10924601109245018FEFE81AF80A32
:1007E000F0924801E0924701E3CF60ED77E080E0CE
:1007F00090E00E94E100D0934401C0934301009136
:1008000043011091440160E00B3011050CF08DCFD5
:10081000802F0E9470000F5F1F4F109344010093C0
:080820004301EDCFF894FFCF76
:107E0000112484B714BE81FFF0D085E080938100F7
:107E100082E08093C00088E18093C10086E0809377
:107E2000C20080E18093C4008EE0C9D0259A86E02C
:107E300020E33CEF91E0309385002093840096BBD3
:107E4000B09BFECF1D9AA8958150A9F7CC24DD24C4
:107E500088248394B5E0AB2EA1E19A2EF3E0BF2EE7
:107E6000A2D0813461F49FD0082FAFD0023811F036
:107E7000013811F484E001C083E08DD089C08234E0
:107E800011F484E103C0853419F485E0A6D080C0E4
:107E9000853579F488D0E82EFF2485D0082F10E0AE
:107EA000102F00270E291F29000F111F8ED06801E7
:107EB0006FC0863521F484E090D080E0DECF843638
:107EC00009F040C070D06FD0082F6DD080E0C81688
:107ED00080E7D80618F4F601B7BEE895C0E0D1E017
:107EE00062D089930C17E1F7F0E0CF16F0E7DF06D8
:107EF00018F0F601B7BEE89568D007B600FCFDCFD4
:107F0000A601A0E0B1E02C9130E011968C91119780
:107F100090E0982F8827822B932B1296FA010C0160
:107F200087BEE89511244E5F5F4FF1E0A038BF0790
:107F300051F7F601A7BEE89507B600FCFDCF97BE46
:107F4000E89526C08437B1F42ED02DD0F82E2BD052
:107F50003CD0F601EF2C8F010F5F1F4F84911BD097
:107F6000EA94F801C1F70894C11CD11CFA94CF0C13
:107F7000D11C0EC0853739F428D08EE10CD085E9AC
:107F80000AD08FE07ACF813511F488E018D01DD067
:107F900080E101D065CF982F8091C00085FFFCCF94
:107FA0009093C60008958091C00087FFFCCF809118
:107FB000C00084FD01C0A8958091C6000895E0E648
:107FC000F0E098E1908380830895EDDF803219F02E
:107FD00088E0F5DFFFCF84E1DECF1F93182FE3DFCA
:107FE0001150E9F7F2DF1F91089580E0E8DFEE27F6
:047FF000FF270994CA
:027FFE00040479
:00000001FF
